S01E000052544F532D4F4C45442D58706C61696E65642D50726F2E73726563AD
S214400000F82E40200D1740000B1740000B174000FD
S2144000100B1740000B1740000B1740000000000075
S214400020000000000000000000000000E51A40004C
S2144000300B17400000000000851B4000ED1B4000F1
S2144000400B1740000B1740000B174000C539400007
S2144000500B1740000B1740000B1740000B174000D3
S2144000600B17400000000000FD1340001114400034
S214400070251440000B1740000B1740000B1740009C
S214400080391440004D1440000B1740000B17400039
S2144000900B1740000B1740000B1740000B17400093
S2144000A09D3940000B1740000B1740000B174000CF
S2144000B00B174000210440000B1740000B17400070
S2144000C00B1740000B1740000B1740000B17400063
S2144000D0000000000B174000000000000B17400017
S2144000E0350440000B1740000B1740000B1740002C
S2144000F00B1740000B1740000B1740000B17400033
S2144001000B1740000B1740000B1740000B17400022
S2144001100B17400000000000000000000000000038
S2144001200B1740000B1740000B1740000B17400002
S2144001300B174000000000000B1740000B17400054
S21440014010B5054C237833B9044B13B10448AFF3CC
S21440015000800123237010BDD0094020000000001D
S214400160987C40000C4B43B10C480D4910B5AFF39A
S21440017000800C48036823B910BD0A48036833B9A9
S2144001807047094B002BF7D0BDE810401847064B88
S214400190002BF5D0184700BF00000000987C4000B8
S2144001A0D4094020987C40000000000070B582B022
S2144001B0026BC36A1340019300241C4E1C4DA84298
S2144001C014BF0020012005010BE00E2C1ED8019A1A
S2144001D004F10C0101238B40134210D10134102C42
S2144001E022D00B2CF1D8019A0123A3401342F5D01C
S2144001F02B1956F82330002BF0D09847EEE72B19F2
S21440020056F82330002BE9D09847E7E7019A04F1E7
S2144002100F0101238B401342E0D02B1956F82330B0
S214400220002BDBD09847D9E702B070BDF40D4020D4
S2144002300040064030B4046E01238B4024EA030499
S2144002401578002D08BF002323430366446D4B00FA
S2144002500321994024EA010451789940214341659D
S21440026030BC70474B780A78134303678A884B88BC
S21440027043EA02434367704700220260084B4360EC
S214400280084B83604FF48023C3600223037401232A
S21440029043748374C274037543758375704700BF97
S2144002A000A3E111808D5B0000230370012343709F
S2144002B070470023037020234370FF23438040F69B
S2144002C0FF73838070470000026B12F0807201D08B
S2144002D01920704710B401230360CB7C002B18BF55
S2144002E04FF000424B688C68B3FBF4F3013B1B02B3
S2144002F09BB2CC6844F4000423430C7C240604F0F0
S214400300706423434C7C240704F040542343134337
S21440031043600B7D002B14BF4FF0807300230A68A8
S21440032013434A7D002A14BF4FF000720022134345
S21440033083608B7D1B0203F4407343F00C03C0F8CC
S21440034094300F4B984206D00E4B98420DD000206A
S2144003505DF8044B70470C4B03F14001002243F814
S214400360042F8B42FBD10020F2E7084B03F14001FB
S214400370002243F8042B8B42FBD10020E8E700BF65
S21440038000C0034000400640F00D4020340E4020A0
S2144003900C4B994207D00B290BD806D0012303FA01
S2144003A001F141627047436270474FF40063436215
S2144003B070470E2994BF0C310F31012303FA01F127
S2144003C041627047FF0F004738B5114CA0420CBF42
S2144003D0102400240C440F4D45F824200AD10E4A20
S2144003E04FF48074C2F884415B01DBB282F8283354
S2144003F0546009E0084A4FF00054C2F880415B015F
S214400400DBB282F81D331460044B984738BD00BFFA
S21440041000400640F40D402000E100E0910340001B
S21440042008B50248024B984708BD00BF00C00340CD
S214400430AD01400008B50248024B984708BD00BFD2
S21440044000400640AD01400000B583B0134B9842D3
S2144004500CBF28201D20124B9847124B9B78FF2B31
S2144004601AD0EFF31083B3FA83F35B09019372B6A5
S214400470BFF35F8F00220C4B1A700199094A93789C
S2144004800133937029B10122074B1A70BFF35F8F77
S21440049062B603B05DF804FBFEE700BF00400640CE
S2144004A081154000EC0D40201800402001230360D9
S2144004B0704719B900234360002070474160FBE74E
S2144004C0063200EB820251607047836839B110B43F
S2144004D001290DD0836000205DF8044B704723F45B
S2144004E0E023120402F4E0221343836000207047A6
S2144004F023F4E003120502F4E0021343EAE701297D
S21440050001D901207047012303FA01F1016100205F
S2144005107047C0F89410002070470000034B1B68DB
S21440052043F480231943016000207047EC094020C3
S21440053041B9094A136823F0807313600268134375
S21440054003607047044A136843F080731360026880
S21440055013430360704700BFEC0940200268034B1A
S2144005601B68194311430160704700BFEC094020E7
S214400570036823EA0101024B1B6819430160704778
S214400580EC094020826883689A4203D08268836878
S2144005909342FBD118467047C068704770B5064610
S2144005A00D46046804F480344FF4803109480A4B01
S2144005B098472DB94FF0FF33736024B9002070BDC3
S2144005C0013D7560F9E74FF480310248034B984788
S2144005D0F4E700BF30180E40710540005D0540004E
S2144005E008B5074B984203D0064B984204D008BD46
S2144005F01520054B984708BD2A20034B9847F6E739
S214400600008000400080054081154000436823F488
S214400610702343604368090401F470211943416024
S214400620704730B443F69924056915F0020F03D19C
S214400630013CF9D101200CE0446814F0020F06D0CA
S214400640120402F4702211430BB141F08071C16074
S214400650002030BC704732B900EB8100036B23F0BA
S21440066001030363704700EB8100036B43F0010313
S2144006700363704732B900EB8100036B23F002033B
S2144006800363704700EB8100036B43F00203036390
S2144006907047042A03D06AB1082A16D0704700EB88
S2144006A08100036B23F008030363036B43F00403EA
S2144006B00363704700EB8100036B23F0080303637A
S2144006C0036B23F004030363704700EB8100036B66
S2144006D043F008030363E1E700EB81010B6B23F073
S2144006E0F0030B630B6B1A430A637047431E1944AF
S2144006F0B1FBF0F0431EFE2B94BF00B24FF0FF302C
S21440070070477AB110B4144600EB81010B6B23F4AA
S2144007107F430B630A6B42EA04220A6300205DF8BB
S214400720044B70474FF0FF30704710B489014318B0
S214400730022444504FF0FF319962196A5A605DF8BE
S214400740044B7047890105234350704700EB8111E5
S214400750CA61704700EB81114A62704700EB811115
S214400760086A7047F0B486B00224019408240294C4
S21440077020240394802404940A9CE40B0594B0EB54
S214400780510F14D84C0CA04217D2012501AF57F890
S2144007902540B1FBF4F4260C84420AD386420DD998
S2144007A00135052DF3D1002006B0F0BC704700207F
S2144007B0FAE70020F8E70120F6E700252AB106A967
S2144007C001EB850151F8141C1160002BF3D01D601D
S2144007D00120E9E708B50648064B98474FF4807174
S2144007E00548064B98470122054B1A6008BD00BFD6
S2144007F0687740000548400000120E4077114000E0
S214400800F409402008B50648064B98474FF48071D7
S2144008100548064B98470022054B1A6008BD00BFA6
S214400820587740000548400000120E4073114000C3
S214400830F409402008B50348034B98470122034B70
S2144008401A6008BD7477400005484000F009402013
S2144008502DE9F0411E20254DA847254C2046254B26
S214400860984700212046244B9847052200212046E1
S214400870224B984700212046214B98470A21204684
S214400880204B98470C20A84700234FF480724FF027
S21440089060511D481D4CA04712241D4F1D4D1E4E35
S2144008A01DE02A6802B30534122CB8BF12245A2C15
S2144008B0A8BF5A242A6821461848DFF86C80C047EB
S2144008C0C4EB043386FB0321DB170022C3EB611124
S2144008D00748134B98474FF4C870124B98473B68ED
S2144008E0002BDED0033CDFE7033CDDE7811540000C
S2144008F000000440AD044000B3044000CB04400078
S214400900FF0440001305400000120E406D124000E8
S214400910F4094020F00940201F85EB5180774000C5
S214400920C1044000912C400005484000014B18602F
S214400930704700BFF8094020024B1B6803EBC0100D
S21440094042547047F8094020024B1B6803EBC01026
S214400950405C7047F80940202DE9F0478418802C09
S21440096002DDC0F18004E2B222B3CD08A1EBC5019E
S214400970012606FA01F1CEB2012B1DD0002B35D050
S214400980022B17D10138C7B2D419E4B2DFF890A0D1
S2144009904FF00009DFF88C8021462846D04786EA8B
S2144009A000024B46D2B221462846C047013CE4B23C
S2144009B0BC42F1D1BDE8F0870138C7B2D419E4B2E1
S2144009C0DFF85CA04FF00009DFF858802146284643
S2144009D0D04746EA00024B46D2B221462846C04798
S2144009E0013CE4B2BC42F1D1BDE8F0870138C7B261
S2144009F0D419E4B2DFF82880CE43DFF828902146A9
S214400A002846C04706EA00020023D2B221462846BE
S214400A10C847013CE4B2BC42F1D1BDE8F08700BF14
S214400A20590C4000550B40002DE9F8439DF82070C6
S214400A308BB11C46904606464D1EEDB22C44E4B2A1
S214400A40DFF818903B46424621463046C847013CB0
S214400A50E4B2AC42F6D1BDE8F88300BF5909400085
S214400A602DE9F04F83B00446884691469B465B7A14
S214400A709BF808200021009149464046214DA84752
S214400A809BF8003013B103B0BDE8F08F9BF8082008
S214400A90D30812F0070F18BF01339BF809A09BF844
S214400AA00A70E71B17FB0AF717FB03F7DBF804305F
S214400AB013FA87F71FE06400E4B20135EBB29E42BA
S214400AC010D9EBB208EB0300C0B213F0070F08BF13
S214400AD017F8014B14F0800FEDD0012249460A4B1F
S214400AE09847E8E709F101095FFA89F90AF1FF3A00
S214400AF01AF0FF0AC7D09BF80860002EF2D00025F7
S214400B002C46DEE7290A4000F50B40002DE9F84365
S214400B10044690461D4689460D4F0E4608E06A7AC2
S214400B20013242445FFA82F8B14614F8013F6BB195
S214400B3020780A28F3D00D28F7D02B46424649465F
S214400B40B8472B7A99445FFA89F9EEE7BDE8F8830F
S214400B50610A400070B504460D4616461BB90D4B5B
S214400B609847B04215D03246294620460A4B984709
S214400B7004F00F0040F0B000084CA047C5F3021048
S214400B8040F01000A04705F00F00A0473046044B49
S214400B90984770BD4909400039094000650C40003F
S214400BA0850E40002DE9F0410D480E4B98470E4B00
S214400BB0984740200D4B984700254FF001082F4698
S214400BC00B4E002443463A46E1B22846B04701342D
S214400BD0802CF7D10135EDB2042DF2D1BDE8F0817D
S214400BE0FC0940202D094000A50C4000650C400043
S214400BF0550B4000C3092AD11F2928D82DE9F041BA
S214400C0014460546CE08A1EBC601012202FA01F7BA
S214400C105FFA87F8014630460D4B98470246012C4E
S214400C2009D064B1022C0ED0002329463046094C28
S214400C30A047BDE8F08148EA0002D2B2F4E720EAD5
S214400C400702D2B2F0E788EA0002D2B2ECE7704779
S214400C5049094000550B400008B5014B984708BD70
S214400C604909400038B505460822094B5A63094CE5
S214400C7001212046084B984701231A46294620461C
S214400C80064CA0474FF4FD70054B984738BD00BF53
S214400C9000100E40008000400D0640002306400035
S214400CA0010040202DE9F843664D4FF400362E6192
S214400CB0C5F8A060644B08271F61C3F8A0706E6635
S214400CC0C5F890606E656E62C5F880602A6F22F443
S214400CD000322A676A6F22F400326A675F66C3F89A
S214400CE090705F655F62C3F880701A6F22F00802EA
S214400CF01A675A6F22F008025A671F602E601F63F9
S214400D002E63DFF87C8100234FF480024FF0805141
S214400D1040464E4CA04700234FF400124FF08051FF
S214400D204046A04700234FF000724FF080514046A7
S214400D30A04700234FF480024FF080514046A04722
S214400D4000234FF400124FF080514046A047002346
S214400D504FF000724FF080514046A0473C4C4FF059
S214400D600209C4F800904FF08008C4F80080636819
S214400D7043F0010363603A4601212046354B9847CD
S214400D80002201212046344B98470022012120466C
S214400D90324B9847636823F00203636000220121C8
S214400DA020462F4B9847636823F080036360636850
S214400DB043F0100363602B492B482C4B9847C2B234
S214400DC0012120462A4B984720462A4B9847012324
S214400DD023606E6340F6B830274CA0472E6340F63B
S214400DE0B830A0472E63A820244CA0471F20A04719
S214400DF0D320A0470020A0474020A047A120A047DE
S214400E00C820A047DA20A0474846A0478120A047F0
S214400E108F20A047A420A047A620A047D520A047C3
S214400E204046A0478D20A0471420A047DB20A0477F
S214400E304020A047D920A047F120A047AF20A04798
S214400E40BDE8F88300120E4000100E406D124000C0
S214400E50008000409306400057064000750640005C
S214400E60D906400080D1F00880841E00ED06400080
S214400E7003074000E105400001004020650C4000AB
S214400E8000140E4038B505460822094B1A63094C33
S214400E9001212046084B984701231A4629462046FA
S214400EA0064CA0474FF4FD70054B984738BD00BF31
S214400EB000100E40008000400D0640002306400013
S214400EC00100402010B51048104B98473E210020A6
S214400ED00F4B98470F4CA0470028FCD00E4B984726
S214400EE00E4A0F4B9A620F4CA0470028FCD00220B7
S214400EF00D4B984700200D4B98470D4B984702489E
S214400F00024B984710BD00BF00A3E111E118400016
S214400F10FD1440005115400061154000013F182067
S214400F2000060E40711540006114400099144000C0
S214400F30D51740002DE9F04180B90C469046002A6E
S214400F400FDD8F18084E094D306821462B689847AC
S214400F500134BC42F8D14046BDE8F0814FF0FF383E
S214400F60F9E78046F7E700BF7C0E4020740E40202D
S214400F700138022815D82DE9F0410E4614469AB19C
S214400F800D46DFF838800C4FD8F8000015F8011BE6
S214400F903B68984700280ADBA81B013CF4D1BDE813
S214400FA0F0814FF0FF3070471046BDE8F0814FF0BB
S214400FB0FF30BDE8F08100BF780E40207C0E402018
S214400FC0F8B54FF400425C4B5A60BFF34F8FBFF307
S214400FD06F8F5A4B0022C3F850225A6942F40032AF
S214400FE05A61BFF34F8FBFF36F8FD3F88070C7F34C
S214400FF04E3607F007000430C7F3C907B7FA87FE36
S2144010000EF01F0EBFF34F8F4FF0FF3404FA00FC74
S21440101006FA00F004FA0EF407FA0EFE1D463A46AB
S214401020734640EA0301C5F86012013A2344B2F120
S214401030FF3FF6D1013E6044B6F1FF3FEFD1BFF32C
S2144010404F8F3E4B5A6942F480325A61BFF34F8FFE
S214401050BFF36F8F3A4A3B495160A1F580715160AA
S214401060BFF34F8FBFF36F8FD3F8902222F0010269
S214401070C3F89022D3F8942222F00102C3F89422B7
S214401080BFF34F8FBFF36F8F0A202F4CA0470B2024
S214401090A0470C20A0471020A0471120A0472B4B6C
S2144010A04FF480721A61C3F8A0201A63A3F58063D8
S2144010B04FF400625A61C3F8A0205A66C3F89020E5
S2144010C05A651A62C3F88420196F21F400611967C3
S2144010D0596F21F400615967C3F8C020C3F8D42083
S2144010E0C3F8B0204FF400121A66C3F890205A6531
S2144010F05A62C3F88020196F21F400111967596F9E
S21440110021F4001159675A60114AD2F8143143F05D
S2144011101003C2F814310F4B10221A66C3F8902001
S2144011205A655A62C3F88020196F11431967596F80
S214401130114359675A60F8BD50180E4000ED00E064
S214401140000C0E400C08005A8115400000120E405C
S2144011500080084000100E40C0F8841053004FF442
S2144011600042B2FBF3F2013AC2F30D02C0F88C2003
S214401170704701637047416370474264B1F1C05F96
S2144011803AD013D8B1F1006F25D0B1F1805F0AD1C3
S214401190036F13430367436F416F0B4023EA020319
S2144011A04367426070470029FBD17047B1F1205F2A
S2144011B021D009D8B1F1005FF3D1036F1343036721
S2144011C0436F13434367ECE7B1F1405F13D0B1F18F
S2144011D0605F10D0E5E710B4016F046FD343214041
S2144011E01C4619400167436F416F0B4023404367DD
S2144011F042605DF8044B7047036F016F0B4023EA73
S21440120002030367436F13434367CAE7416412F020
S214401210010F0DD1016612F00A0F0BD0016212F0D9
S214401220020F09D112F0080F08D0C0F8841005E06C
S2144012304166F0E74162F2E7C0F880104161016024
S214401240704710B4019C41644CB901664BB10165CE
S2144012504AB94163016101605DF8044B70474166DD
S214401260F4E74165F4E70163F4E7000070B582B047
S214401270054616461C46B1F1005F14D00AD9B1F1B6
S214401280405F24D0B1F1605F21D0B1F1205F17D02C
S21440129000201AE0B1F1805F05D0B1F1C05F02D006
S2144012A0B1F1006FF4D132462846114B984714F0FE
S2144012B0010F02D12E66012007E06E66012004E091
S2144012C01A4631460B4B9847012002B070BD04F0D9
S2144012D001030093C4F38003B1F1605F14BF0022A2
S2144012E0012231462846044CA0470120EDE700BFC6
S2144012F07B1140000D1240004312400012F0100FC8
S21440130012D0C0F8B01012F0200F07D0C0F8D4109A
S21440131012F0400F05D0C0F8C0107047C0F8D0108B
S214401320F6E7C0F8C4107047C0F8B41070470164C0
S2144013307047C06C7047806C704700002DE9F041E4
S214401340044688460E4B9847054620460D4B984720
S214401350054013D00C4C04F1600603E0B4420DD0B7
S21440136010345DB120684045F8D161682942F5D017
S214401370E3689847636825EA0305EFE7BDE8F08130
S2144013803313400037134000FC0B4020F8B5184C90
S2144013902668062E2AD84FF0000C6446154F04E007
S2144013A00134E4B2A446A64209D3A64625017D5997
S2144013B08D42F5D107EB04156D689542F0D10D4D81
S2144013C04FEA0E1E05EB0E0445F80E106260A36051
S2144013D00699E1600136664505D011461A46064B29
S2144013E098470020F8BD02490E60F6E70120F8BD98
S2144013F06C0C4020FC0B4020FD12400008B50A2132
S2144014000148024B984708BD000E0E403D13400071
S21440141008B50B210148024B984708BD00100E4006
S2144014203D13400008B50C210148024B984708BDC3
S21440143000120E403D13400008B510210148024BF3
S214401440984708BD00140E403D13400008B51121D2
S2144014500148024B984708BD00160E403D13400019
S214401460032811D0042812D002280CBF4FF48071F4
S2144014700021084A136B23F440730B431363936EA7
S21440148013F0080FFBD070474FF44071F1E74FF46C
S2144014900071EEE700060E40174A136B23F0700308
S2144014A018431063936E13F0080F0AD14FF480531D
S2144014B011498A6E12F0080F03D1013BF9D1012081
S2144014C070470D4A136B23F0030343F00203136384
S2144014D0936E13F0080F0AD14FF4805306498A6E74
S2144014E012F0080F05D1013BF9D1012070470020CA
S2144014F070470020704700BF00060E40A0B90E4857
S214401500036A090289B20D4A1A400D4B1343194328
S21440151001620246936E13F0010FFBD0064A116A31
S214401520084B0B431362704703490B6A064A1A403E
S214401530064B13430B62704700060E40FCFFC8FF85
S2144015400100370000003701FCFFC8FE02003701EB
S214401550024B986E00F48030704700BF00060E4085
S2144015604FF00052014B9A62704700BF00060E4093
S214401570024B986E00F00200704700BF00060E4017
S2144015803F281ED81F280CD8114B9A690123834048
S214401590934318D0012303FA00F00D4B1861002046
S2144015A0704720380A4BD3F80821012383409343E1
S2144015B00BD0012303FA00F0054BC3F800010020CE
S2144015C0704701207047002070470020704700BFDA
S2144015D000060E40436913F0020F02D0C16100209E
S2144015E0704701207047436913F0010F03D08369A9
S2144015F00B70002070470120704710B40B019342D7
S21440160014D9C9004B0803EBC202B2FBF1F2D3086F
S2144016105C1E4FF6FE718C4201D9012017E04168EE
S21440162041F4002141600CE0012010E0590801EB34
S214401630C202B2FBF3F2D3085C1E4FF6FE718C4238
S214401640F2D8120402F4E0221A43026200205DF847
S214401650044B7047084BC0F8E430002343604362B5
S214401660836288230360242303604FF480730360FF
S2144016704FF40023036070470041535570B505464C
S2144016800C4616460F4B984700220F4B1A60A4B1E3
S2144016903246216828460D4B9847024678B963681B
S2144016A0A1680B4321690B43E1680B4306490B6075
S2144016B069680B436B60104670BD0122FBE7012250
S2144016C0F9E700BF55164000700C4020FB1540005F
S2144016D0402303607047102303607047436913F04C
S2144016E0020F04D0C1F30801C161002070470120F9
S2144016F07047436913F0010F05D08369C3F30803AD
S2144017000B600020704701207047FEE700B583B0AD
S214401710254B264A9A4210D0254B234A9A420CD251
S214401720013B9B1A23F00303043313441F4951F82B
S214401730040B42F8040B9A42F9D11E4B1E4A9A42B9
S2144017400AD2013B9B1A23F00303043313440021BF
S21440175042F8041B9342FBD1184A194B23F07F03EF
S2144017609360EFF31083B3FA83F35B09019372B689
S214401770BFF35F8F0022134B1A700199124A136809
S21440178043F470031360BFF34F8FBFF36F8F29B1DD
S21440179001220C4B1A70BFF35F8F62B60B4B984713
S2144017A00B4B9847FEE700BF00004020987C400067
S2144017B0D0094020F40E4020D009402000ED00E043
S2144017C0000040001800402088ED00E0B54740008B
S2144017D0C13E40003B4B1B6B03F00303012B1DD067
S2144017E083B1022B36D0374B1B6B03F07003702B44
S2144017F05FD0344B1A6B3449C2F302120B68D340A5
S2144018000B607047314B5B6913F0800F14BF4FF489
S21440181000424FF4FA422C4B1A60E4E7294B1B6A0D
S21440182013F0807F03D02A4A274B1A60DBE7294A09
S214401830254B1A60234B1B6A03F07003102B05D010
S214401840202BD0D1224A204B1A60CCE7224A1E4B8E
S2144018501A60C8E71B4B1B6A13F0807F16D01C4AE1
S214401860194B1A60174B1B6B03F00303022BBAD1BC
S214401870144A916A926A1448C1F30A41036801FB0C
S2144018800333D2B2B3FBF2F30360ACE7114A0E4B1C
S2144018901A600C4B1B6A03F07003102B05D0202BEC
S2144018A0E0D10B4A084B1A60DCE70B4A064B1A603D
S2144018B0D8E7054A13680949A1FB03135B08136080
S2144018C0704700BF00060E401C00402010180E4017
S2144018D0001BB70000093D0000127A00ABAAAAAA76
S2144018E0164B984213D9164B984215D9154B984229
S2144018F016D9154B984217D9144B984218D9144B01
S214401900984294BF134A144A144B1A6070474FF0DB
S2144019108062124B1A607047114A104B1A6070472B
S214401920104A0E4B1A6070470F4A0C4B1A607047AD
S2144019304FF00422094B1A60704700BFBFF35E01A8
S2144019407FE7BD023FDB1C04FFCE7B05BFC2DA0645
S2144019507FB639080005000400060004000C0E405F
S2144019600001000400020004000300040A4B1B6848
S21440197053B1094B1B681A180849914208DB1046B8
S214401980054A106018467047054A034B1A60F0E750
S2144019904FF0FF30704700BF740C4020FCFF4520DE
S2144019A0F83040204FF0FF3070474FF400534B6004
S2144019B000207047012070470020704700F1080360
S2144019C043604FF0FF328260C360036100230360D0
S2144019D0704700230361704743684B609A688A608B
S2144019E09A685160996008610368013303607047E4
S2144019F030B40D68B5F1FF3F02D000F1080202E0B6
S214401A00026904E01A4653681C68A542FAD2536835
S214401A104B6099608A6051600861036801330360D7
S214401A2030BC70470369426881689160826841684B
S214401A3051605A68904205D0002202611868013809
S214401A401860704782685A60F6E700000D4B1B68C6
S214401A50B3F1FF3F0AD04FF0800372B683F311888C
S214401A60BFF36F8FBFF34F8F62B6FEE74FF0800332
S214401A7072B683F31188BFF36F8FBFF34F8F62B692
S214401A80FEE700BF2000402006480068006880F35C
S214401A90088862B661B6BFF34F8FBFF36F8F00DF23
S214401AA000BF000008ED00E0DFF80C00016841F4DC
S214401AB0700101607047000088ED00E04FF08073D1
S214401AC040F8043C40F8081C054B40F80C3C40F8F5
S214401AD0202C6FF0020340F8243C4438704700BF87
S214401AE04D1A4000064B19680868B0E8F04F80F37E
S214401AF00988BFF36F8F4FF0000080F3118870475E
S214401B00800C4020704700BF4FF0800372B683F3CE
S214401B101188BFF36F8FBFF34F8F62B60B4A1368BF
S214401B2001331360012B0FD1094B1B6813F0FF0FD5
S214401B300AD04FF0800372B683F31188BFF36F8FDD
S214401B40BFF34F8F62B6FEE7704700BF20004020CD
S214401B5004ED00E00A4B1B6853B94FF0800372B6A1
S214401B6083F31188BFF36F8FBFF34F8F62B6FEE7E4
S214401B70013B034A13600BB983F31188704700BFDB
S214401B8020004020EFF30980BFF36F8F154B1A6893
S214401B901EF0100F08BF20ED108A20E9F04F1060AD
S214401BA04DF8043D4FF0800072B680F31188BFF3C5
S214401BB04F8FBFF36F8F62B601F0FEF84FF0000014
S214401BC080F3118808BC19680868B0E8F04F1EF02A
S214401BD0100F08BFB0EC108A80F30988BFF36F8FF0
S214401BE0704700BF800C4020704700BF08B5EFF339
S214401BF011834FF0800272B682F31188BFF36F8F65
S214401C00BFF34F8F62B6054B984718B14FF08052DE
S214401C10034B1A60002383F3118808BD252A400031
S214401C2004ED00E0034A044B1A600722043B1A60A6
S214401C30704700BFBF27090014E000E000B583B03E
S214401C40254B1A78D2B20192FF221A701B78DBB26B
S214401C508DF803309DF8033003F080031F4A13705D
S214401C6007221F4B1A609DF8033013F0800F10D0E8
S214401C70062200E00A469DF803305B00DBB28DF892
S214401C8003309DF80330511E13F0800FF2D1144BF1
S214401C901A60134A13681B0203F4E0631360019B47
S214401CA0DBB20D4A13700F4B1A6842F460021A609A
S214401CB01A6842F060421A600B4B984700220B4B62
S214401CC01A600B4B98470B4A136843F04043136027
S214401CD0094B9847094B984700E400E0780C4020B1
S214401CE07C0C402020ED00E0251C400020004020D9
S214401CF0A91A400034EF00E0891A40004D1A40000F
S214401D00EFF305830F2B11D9124A9B5CDBB2124AC4
S214401D1012789A420AD94FF0800372B683F311883C
S214401D20BFF36F8FBFF34F8F62B6FEE70B4B1B6858
S214401D3003F4E0630A4A126893420AD94FF08003DC
S214401D4072B683F31188BFF36F8FBFF34F8F62B6BF
S214401D50FEE77047F0E300E0780C40200CED00E032
S214401D607C0C402010B50446064B98472046064B50
S214401D7098470446054B98470CB1204610BD044B87
S214401D809847FAE7092A40002D484000712B40004A
S214401D908739400048B110B50446044B9847204662
S214401DA0034B9847034B984710BD7047092A40009D
S214401DB03D484000712B400038B504461546026C3D
S214401DC05AB90368002B2ED140681B4B9847002316
S214401DD06360A36B0133A36338BD6DB98068174B4E
S214401DE09847A368226C1344A360626893421CD34E
S214401DF02368A3600020ECE7C068104B9847236C2C
S214401E005B42E2681A44E26021688A4202D2626813
S214401E101344E360022D0AD1A36B53B1A36B013B7D
S214401E20A3630020D5E70020D3E70020D1E70020B9
S214401E30CFE70020CDE700BFB9314000AD4D4000B0
S214401E4030B583B00190446D74B1A26BE36B9A4297
S214401E5015D34FF0800372B683F31188BFF36F8FAC
S214401E60BFF34F8F62B6FEE74FF0800372B683F340
S214401E701188BFF36F8FBFF34F8F62B6FEE7A26B3A
S214401E80934203D80025284603B030BD0A4601A930
S214401E9020460B4B98470546A36CB3F1FF3F0AD14B
S214401EA0636A002BEFD004F12400064B98470028C5
S214401EB018BF0125E7E7A36C0133A364E3E700BF3F
S214401EC0B91D40008D2F4000026C72B110B503461C
S214401ED0C4681444C4604068844201D31868D8601B
S214401EE00846D968014B984710BD7047AD4D400035
S214401EF0F8B50446224B9847A36C002B1BDD214DBA
S214401F00214F224E0BE0636AABB104F12400B04788
S214401F1078B9A36C013BA364A36C002B0BDD636D07
S214401F20002BF0D000212046A8470128F1D1B84721
S214401F30EFE7B847EDE74FF0FF33A364144B9847FD
S214401F400F4B9847636C002B14DD236993B104F163
S214401F5010060E4D0C4F07E0636C013B6364636CE8
S214401F60002B07DD23692BB13046A8470028F3D065
S214401F70B847F1E74FF0FF336364054B9847F8BD29
S214401F80091B4000411E4000E93040008D2F4000B4
S214401F90551B400038B508B304460D461D4B9847C0
S214401FA02268216CE36B03FB01F3D01860600020CD
S214401FB0A063A2605B1A1344E3604FF0FF33636490
S214401FC0A364FDB923692BB104F11000124B984766
S214401FD001280ED0114B9847012038BD4FF08003A2
S214401FE072B683F31188BFF36F8FBFF34F8F62B61D
S214401FF0FEE74FF080520A4B1A60BFF34F8FBFF395
S2144020006F8FE7E704F11000064DA84704F124005F
S214402010A847DFE7091B40008D2F4000551B4000B6
S21440202004ED00E0BD194000F8B550B94FF080030C
S21440203072B683F31188BFF36F8FBFF34F8F62B6CC
S214402040FEE7064617460D4689B101FB00F05930BB
S214402050124B98470446E8B94FF0800372B683F3B4
S2144020601188BFF36F8FBFF34F8F62B6FEE75820DD
S2144020700A4B984704460028EED02060E663256465
S21440208001212046064B984784F85070002363652C
S2144020902046F8BD00F158030360EFE7651D400099
S2144020A0951F40002DE9F04F85B00192B8B1044627
S2144020B001B3022B2CD01D468846664B9847002815
S2144020C034D1019B002B38D04FF0800372B683F397
S2144020D01188BFF36F8FBFF34F8F62B6FEE74FF0A6
S2144020E0800372B683F31188BFF36F8FBFF34F8FB1
S2144020F062B6FEE7026C002ADBD04FF0800372B671
S21440210083F31188BFF36F8FBFF34F8F62B6FEE73E
S214402110E26B012ACFD04FF0800372B683F311886A
S214402120BFF36F8FBFF34F8F62B6FEE700274A4E6E
S214402130DFF850A1DFF82C9142E00027F7E72A4667
S21440214041462046454B9847636D9BB129462046FD
S214402150434B9847012807D14FF08052414B1A60B5
S214402160BFF34F8FBFF36F8F3F4B9847012005B0AB
S214402170BDE8F08F636A73B104F124003B4B984787
S2144021800128F1D14FF08052364B1A60BFF34F8F83
S214402190BFF36F8FE8E70028E6D04FF08052314B10
S2144021A01A60BFF34F8FBFF36F8FDDE72E4B984714
S2144021B00020DCE720462E4B98472E4B98470127B9
S2144021C0B047A26BE36B9A42B9D3022DB7D0019BBE
S2144021D0002BEBD00FB902A8D047234B9847264B8D
S2144021E09847B047636CB3F1FF3F01D10023636467
S2144021F0A36CB3F1FF3F01D10023A3641A4B984769
S21440220001A902A81D4B9847E0B9B047D4F838B0AA
S214402210E76B154B9847BB45CCD1019904F11000AC
S214402220174B98472046124B9847124B9847002822
S214402230C5D14FF08053C9F80030BFF34F8FBFF37E
S2144022406F8FBCE720460A4B98470A4B98470020BA
S2144022508DE700BFF5304000091B4000B91D400027
S214402260411E400004ED00E0551B40008D2F40000D
S214402270F11E4000712B4000092A400055304000B6
S214402280892E400025304000002836D02DE9F04108
S214402290044600293CD0022B48D01E4615468846A8
S2144022A0354B9847EFF311874FF0800372B683F3B0
S2144022B01188BFF36F8FBFF34F8F62B6A26BE36B8D
S2144022C09A4201D3022E4FD13246414620462B4BEE
S2144022D09847A36CB3F1FF3F41D1636D002B33D0D9
S2144022E031462046264B9847002D3FD001283DD109
S2144022F0286087F31188BDE8F0814FF0800372B6FE
S21440230083F31188BFF36F8FBFF34F8F62B6FEE73C
S214402310006C0028BFD04FF0800372B683F311885C
S214402320BFF36F8FBFF34F8F62B6FEE7E06B0128B7
S214402330B3D04FF0800372B683F31188BFF36F8F2C
S214402340BFF34F8F62B6FEE7636A8BB104F1240099
S2144023500C4B984775B168B101202860C9E7A36C5B
S2144023600133A3640120C4E70020C2E70120C0E790
S2144023700120BEE70120BCE7011D4000B91D40001A
S214402380411E40008D2F400070B170B50446036C6E
S214402390ABB14FF0800372B683F31188BFF36F8FF3
S2144023A0BFF34F8F62B6FEE74FF0800372B683F3FB
S2144023B01188BFF36F8FBFF34F8F62B6FEE7036897
S2144023C033B30D46254B9847EFF311864FF0800305
S2144023D072B683F31188BFF36F8FBFF34F8F62B629
S2144023E0A26BE36B9A4231D2A36B0133A363A36C17
S2144023F0B3F1FF3F25D1636DC3B100212046184B92
S21440240098472DB3012823D1286086F3118870BDE4
S2144024104368002BD5D04FF0800372B683F3118803
S214402420BFF36F8FBFF34F8F62B6FEE7636A8BB121
S21440243004F124000B4B984775B168B10120286021
S214402440E3E7A36C0133A3640120DEE70020DCE76A
S2144024500120DAE70120D8E70120D6E7011D400039
S214402460411E40008D2F40002DE9F04784B0019278
S21440247098B10446E1B198460F46614B984728BB51
S214402480019B53B34FF0800372B683F31188BFF3BA
S2144024906F8FBFF34F8F62B6FEE74FF0800372B682
S2144024A083F31188BFF36F8FBFF34F8F62B6FEE79B
S2144024B0026C002ADFD04FF0800372B683F3118897
S2144024C0BFF36F8FBFF34F8F62B6FEE700264D4DCA
S2144024D0DFF860A1DFF83C914BE00026F7E7E568BF
S2144024E039462046484B9847B8F1000F1DD1A36B9C
S2144024F0013BA363236813B9444B98476060236944
S2144025006BB104F11000424B9847012807D14FF0B9
S2144025108052404B1A60BFF34F8FBFF36F8F3E4BD6
S2144025209847012004B0BDE8F087E560636A002B59
S214402530F5D004F12400364B98470028EFD04FF0F2
S2144025408052344B1A60BFF34F8FBFF36F8FE6E76E
S214402550314B98470020E5E7A84760682F4B9847DF
S2144025602D4B984730E020462D4B98472D4B9847AB
S2144025700126A847A36B002BB1D1019B002BE7D0C7
S2144025800EB902A8D047244B9847274B9847A847F0
S214402590636CB3F1FF3F01D100236364A36CB3F1D6
S2144025A0FF3F01D10023A3641B4B984701A902A813
S2144025B01E4B9847E8B9A847A66B174B9847002E7E
S2144025C0D1D12368002BC7D0019904F12400184BC1
S2144025D098472046124B9847124B98470028C7D139
S2144025E04FF08053C9F80030BFF34F8FBFF36F8F63
S2144025F0BEE720460A4B98470A4B9847002091E78B
S214402600F5304000091B4000C91E400075324000AE
S2144026108D2F400004ED00E0551B40001531400072
S214402620F11E4000712B4000092A40005530400002
S214402630892E40002530400010B40B4B1B6853B128
S2144026400123094C54F8332032B10133082BF9D119
S2144026505DF8044B70470023034A42F8331002EB00
S214402660C3035860F4E700BF800E402070B50446B0
S2144026700D4616460F4B9847636CB3F1FF3F0BD0A1
S214402680A36CB3F1FF3F0AD00B4B9847A36B4BB1FB
S21440269020460A4B984770BD00236364F0E700234A
S2144026A0A364F1E73246294604F12400044B9847D8
S2144026B0EEE700BF091B4000551B4000F11E4000DE
S2144026C00D2F4000084B1B681B683BB1064B1B6830
S2144026D0DB68DB685A68054B1A6070474FF0FF327C
S2144026E0024B1A60704700BF840C4020300D4020DB
S2144026F010B50F4B1B6858600E4B1B6898420ED3A4
S21440270004460D4B18680A4B196804310B4B984722
S2144027100B4B1B689C4201D2094B1C6010BD094BF9
S2144027201868034B19680431044B984710BD00BF26
S214402730800C4020780D4020840C4020F119400049
S214402740300D4020880C40202DE9F04F83B00C9D82
S214402750DDF834A00E9E60B1042D15D94FF08003ED
S21440276072B683F31188BFF36F8FBFF34F8F62B695
S214402770FEE74FF0800372B683F31188BFF36F8F86
S214402780BFF34F8F62B6FEE70190984691460F46DC
S21440279036B99000624B98470646002800F09E8067
S2144027A058205F4B98470446002800F09480066304
S2144027B04FEA8902A52130465A4B98476FF040466B
S2144027C04E44236B03EB860323F007063B7884F8DE
S2144027D034303B78002B40F08480002784F83D70EE
S2144027E0E562A564E76404F104094846DFF884B16D
S2144027F0D84704F11800D8472461C5F10503A36102
S2144028006462276584F85470424601993046464BC8
S21440281098472060BAF1000F01D0CAF80040434BF9
S2144028209847434A136801331360424B1B68002B9A
S21440283066D1404B1C601368012B21D13E4F384671
S2144028403E4EB04707F11400B04707F12800B047A6
S21440285007F13C00B04707F15000B047DFF8188159
S2144028604046B047364F3846B0473648B0473648B9
S214402870B0473648B047364BC3F80080354B1F60EC
S214402880354A1368013313602364E06A334A11689B
S214402890012383400B43136000EB80004946264BE0
S2144028A003EB80002E4B98472E4B98472E4B1B68C9
S2144028B0002B31D01F4B1B68DB6A9D422ED94FF050
S2144028C080522A4B1A60BFF34F8FBFF36F8F0120A1
S2144028D003B0BDE8F08F3046254B98474FF0FF30A9
S2144028E0F6E73B4604F134020937597802F8011FEF
S2144028F013F8011F00293FF470AFBB42F5D16CE7D7
S214402900194B1B68002BBBD10A4B1B68DB6A9D42E8
S214402910B6D3084B1C60B3E70120D9E70120D7E7C0
S214402920651D4000E14E4000BD1A4000091B4000B6
S214402930F00C4020800C40208C0C4020BD194000FC
S2144029401C0D4020380D4020640D4020500D402086
S214402950840C4020880C4020FC0C4020040D402075
S214402960D9194000551B40004C0D402004ED00E0B6
S214402970951D4000D3194000080D402010B584B086
S214402980002303930293019300938222164917482B
S214402990174CA04701280BD020BB4FF0800372B6DF
S2144029A083F31188BFF36F8FBFF34F8F62B6FEE796
S2144029B0104B98470128EFD14FF0800372B683F34F
S2144029C01188BFF36F8FBFF34F8F62B64FF0FF3261
S2144029D0094B1A600122094B1A600022084B1A6004
S2144029E0084B984704B010BD387A4000212D40006F
S2144029F04927400061334000300D40204C0D4020B8
S214402A00780D40203D1C4000024A13680133136095
S214402A10704700BFF80C4020014B1868704700BF55
S214402A20780D40202DE9F047424B1B68002B78D1AB
S214402A30414B1A6801321A601E68D6B93F4B1B6874
S214402A401B6853B14FF0800372B683F31188BFF30F
S214402A506F8FBFF34F8F62B6FEE7384A1168384B28
S214402A60186810601960374A136801331360364B94
S214402A709847364B1B689E4218D20024344B1B683E
S214402A80DB6A03EB8303334A52F82330022B28BF1A
S214402A900124314B1B680BB9304B9847304B1B68B1
S214402AA0002B0CBF20460120BDE8F0870024DFF84D
S214402AB08C90DFF8B8802B4F1FE04FF0FF32234B4F
S214402AC01A60DBE7214A1360D8E705F11800C047D3
S214402AD0E86A3A680123834013433B6000EB80007A
S214402AE051461C4B03EB80001F4B9847184B1B6806
S214402AF0EA6ADB6A9A4228BF0124D9F800301B688C
S214402B00002BDAD0D9F80030DB68DD686B689E426F
S214402B10D8D305F1040A5046C047AB6A002BD4D13F
S214402B20D6E70D4A1368013313600C4B98470024D0
S214402B30B4E700BFF80C4020780D4020840C4020BD
S214402B40880C4020340D4020C5264000300D4020E3
S214402B50800C40208C0C4020F40C402085394000EE
S214402B607C0D4020040D4020D9194000251A400015
S214402B702DE9F843384B1B6853B94FF0800372B6C3
S214402B8083F31188BFF36F8FBFF34F8F62B6FEE7B4
S214402B90324B9847304B1A68013A1A601B68002B34
S214402BA055D12F4B1B68002B32D100242D4B984714
S214402BB02046BDE8F883FB68DC6804F11800B0479F
S214402BC004F104084046B047E06A2A68012383407F
S214402BD013432B6000EB8000414609EB8000224BFC
S214402BE09847224B1B68E26ADB6A9A420CD23B68E3
S214402BF0002BE0D11E4B1B68DBB11D4B1B68C3B1DD
S214402C001C4E1D4D1A4C0EE001221B4B1A60EEE77F
S214402C101A4F1B4E1B4DDFF87490E8E72368013BC4
S214402C20236023682BB1B0470028F7D001232B60E0
S214402C30F4E7114B1B68012B0BD14FF08052124B1F
S214402C401A60BFF34F8FBFF36F8F0124AEE70024A7
S214402C50ACE70024AAE700BFF80C4020091B400060
S214402C60F00C4020551B4000D9194000800C4020F5
S214402C70F40C4020252A40007C0D4020380D402092
S214402C80251A4000040D402004ED00E08C0C402046
S214402C9010B5002829D00446184B1B6853B14FF096
S214402CA0800372B683F31188BFF36F8FBFF34F8FE5
S214402CB062B6FEE7124B9847124B1B681C44124BF9
S214402CC018680430114B984748B90F4B1A6810499A
S214402CD00B68D06A0122824023EA02030B6020463A
S214402CE00C4B98470C4B984738B94FF080520B4BDB
S214402CF01A60BFF34F8FBFF36F8F10BDF80C4020A4
S214402D00092A4000780D4020800C4020251A4000BB
S214402D10040D4020F1264000712B400004ED00E0F9
S214402D2080B5DFF88880194EDFF884902AE0184B8B
S214402D301B68012B1ED82B68002BF8D0C047346880
S214402D40B847002CF7D0134B9847F368DC68201D33
S214402D50114B9847114A1368013B13602B68013B9F
S214402D602B600F4B9847206BDFF848A0D047204693
S214402D70D047E0E74FF08053C9F80030BFF34F8F9D
S214402D80BFF36F8F074D084FD5E700BF640D402057
S214402D908C0C4020091B4000251A4000F00C4020B7
S214402DA0551B4000000D4020712B4000092A400072
S214402DB004ED00E0951D40002D4B1B68002B2CD1E8
S214402DC010B500222B4B1A602B4B1B681B6B1A68E6
S214402DD0B2F1A53F03D15A68B2F1A53F21D0264BA8
S214402DE0186819683431254B9847254B1B68B3FA49
S214402DF083F3DBB2C3F11F0303EB8301214A52F88E
S214402E002120BAB94FF0800372B683F31188BFF31E
S214402E106F8FBFF34F8F62B6FEE70122154B1A60E5
S214402E2070479A68B2F1A53FD9D1DB68B3F1A53FA8
S214402E30D5D1DAE7134A9900C81802EB80004468F7
S214402E4064684460194402460832944209D003EB51
S214402E5083030C4A02EB83035B68DA68064B1A600E
S214402E6010BD6068074A02EB81025060EFE700BF82
S214402E70F80C40207C0D4020800C40206D394000EE
S214402E80040D40208C0C402038B5E0B10C46174D60
S214402E9029681831164B984728680430154B9847D0
S214402EA040B92A6814490B68D06A0122824023EA56
S214402EB002030B60B4F1FF3F10D0104B186820445B
S214402EC00F4B984738BD4FF0800372B683F3118896
S214402ED0BFF36F8FBFF34F8F62B6FEE7034B1968A1
S214402EE004310848084B984738BD00BF800C402046
S214402EF0F1194000251A4000040D4020780D40206E
S214402F00F1264000500D4020D9194000E8B170B578
S214402F1015460C46164E31681831164B98473068A1
S214402F200430154B984740B9326814490B68D06A4C
S214402F300122824023EA02030B60012D10D0104B81
S214402F40186820440F4B984770BD4FF0800372B608
S214402F5083F31188BFF36F8FBFF34F8F62B6FEE7E0
S214402F60034B196804310848024B984770BD00BFB0
S214402F70800C4020D9194000251A4000040D4020FE
S214402F80780D4020F1264000500D402038B5C368EB
S214402F90DC6824B304F1180528461A4B98471A4BA8
S214402FA01B683BBB251D2846164B9847E06A174AC8
S214402FB01168012383400B43136000EB80002946D1
S214402FC0134B03EB8000134B9847134B1B68E26A86
S214402FD0DB6A9A4213D90120104B186038BD4FF077
S214402FE0800372B683F31188BFF36F8FBFF34F8FA2
S214402FF062B6FEE729460A48064B9847E5E70020B2
S21440300038BD00BF251A4000F80C4020040D402073
S2144030108C0C4020D9194000800C40207C0D40206C
S214403020380D402030B1094A12680260084A1268DA
S214403030426070474FF0800372B683F31188BFF347
S2144030406F8FBFF34F8F62B6FEE700BF340D402050
S214403050780D402038B5C0B1044609B30D461D4B27
S21440306098471D4B1A682B68B3F1FF3F2ED01B497B
S21440307009682068884202D061688A4228D261681E
S214403080501A834217D801241CE04FF0800372B6D2
S21440309083F31188BFF36F8FBFF34F8F62B6FEE79F
S2144030A04FF0800372B683F31188BFF36F8FBFF380
S2144030B04F8F62B6FEE79B1A0B442B602046084BA8
S2144030C098470024074B9847204638BD0024F9E728
S2144030D00124F7E7091B4000780D4020340D4020BE
S2144030E025304000551B40000122014B1A607047B6
S2144030F07C0D4020054B1B6833B1054B1B68002BED
S2144031000CBF022000207047012070474C0D402025
S214403110F80C4020002844D038B50446C26A2149FD
S2144031200968C96A8A4214D28169002905DB1D49AB
S2144031300968C96AC1F10501816102EB82021A4938
S21440314001EB82026169914204D0164A1268D26A43
S214403150E26238BD251D2846144B984770B9E36A8D
S21440316003EB8301104A52F821203AB9104802680E
S214403170012101FA03F322EA03030360094B1B68AB
S214403180D86AE0620A4A1168012383400B43136001
S21440319000EB80002946044B03EB8000054B984724
S2144031A038BD7047800C40208C0C4020251A4000CB
S2144031B0040D4020D919400000284DD038B50446AB
S2144031C0274A126890420AD04FF0800372B683F3C3
S2144031D01188BFF36F8FBFF34F8F62B6FEE7C26CA6
S2144031E052B94FF0800372B683F31188BFF36F8FE6
S2144031F0BFF34F8F62B6FEE7013AC264C06AA16C65
S21440320088422BD052BB251D2846164B984768B996
S214403210E16A01EB8102144B53F8223033B913486C
S214403220036801228A4023EA02030360A06CE0623E
S214403230C0F10503A3610D4A1168012404FA00F3A6
S2144032400B43136000EB80002946074B03EB8000DE
S214403250074B9847204638BD00207047002038BDB1
S214403260800C4020251A40008C0C4020040D402045
S214403270D9194000054B1B6823B1044B1A68D36C20
S2144032800133D364014B1868704700BF800C402060
S21440329008B54160006191420CD8D21A83699A42BF
S2144032A001D3012008BD011D094B1868094B9847FA
S2144032B0002008BD9A4203D2994201D3012008BD9E
S2144032C0011D054B1868034B9847002008BD00BFFA
S2144032D0840D4020F1194000800D402070B5154BFC
S2144032E09847154B1B6813B1144B984770BD144D47
S2144032F02846144EB047144C2046B047134B1D602A
S214403300134B1C60002210210520124B98470A4B95
S214403310186018B11049114B9847E5E74FF0800305
S21440332072B683F31188BFF36F8FBFF34F8F62B6C9
S214403330FEE700BF091B4000B40D4020551B40006F
S214403340880D4020BD1940009C0D4020800D402037
S214403350840D402029204000407A40003926400015
S21440336010B584B00F4B98470F4B1B6873B10023C2
S214403370039302930193042200924FF482720B4906
S2144033800B480C4CA04708B104B010BD4FF080036A
S21440339072B683F31188BFF36F8FBFF34F8F62B659
S2144033A0FEE700BFDD324000B40D4020487A4000C2
S2144033B0E134400049274000D8B130B585B01546C5
S2144033C00446154A106820B31A46009101950294A7
S2144033D0052919DC114B984702284FF000030CBF13
S2144033E0089A1A4669460C4800680D4CA04705B036
S2144033F030BD4FF0800372B683F31188BFF36F8FF2
S214403400BFF34F8F62B6FEE700236946054CA047E0
S214403410EDE70020EBE700BFB40D4020F53040005C
S214403420A5204000892240002DE9F04782B0804622
S214403430244B98470746244B1B6898421BD30023CF
S214403440C8F80030204B1F60384602B0BDE8F08711
S214403450002100910B46524620461C4CA04760B9BE
S2144034604FF0800372B683F31188BFF36F8FBFF3BC
S2144034704F8F62B6FEE7164D164E2B681A68C2B1DD
S214403480DB68D3F800A0DC6804F104094846B0477E
S214403490636A20469847E369012BEED1A3695344FB
S2144034A09A45D5D263602461494628680A4B9847B6
S2144034B0E3E70A4A10680649086013600123C8F823
S2144034C00030BFE7192A4000B00D4020B933400015
S2144034D0800D4020251A4000F1194000840D402000
S2144034E02DE9F04788B0754E754FDFF8FC91DFF850
S2144034F0FC8133681A68002A00F0CE80DB681C68BE
S214403500B84704A86F4B98470546049B002B44D108
S214403510A04212D20022611B6B4B18686B4B984737
S2144035206B4B984700283AD14FF08053C9F800308B
S214403530BFF34F8FBFF36F8F31E0654B98473368CB
S214403540DB68D3F80CA00AF10400C047DAF81C3058
S214403550012B04D0DAF82430504698471FE0DAF8BA
S214403560181023462A46214450465A4DA84701285B
S214403570F0D1002100910B4622465046564CA047BB
S2144035800028E7D14FF0800372B683F31188BFF36B
S2144035906F8FBFF34F8F62B6FEE74D4B98474A4D4D
S2144035A04E4C06E007990698059B9847049B002BCF
S2144035B009DA00231A4604A92868A047002898D0AC
S2144035C0049B002BEEDBDDF818A0DAF8143013B1BC
S2144035D00AF10400C04703A83A4B9847049B092BBE
S2144035E0E7D801A252F823F01136400011364000C9
S2144035F011364000B33540006536400091364000F5
S2144036001136400011364000B33540006536400064
S214403610059CDAF8181023460246214450462D4CA5
S214403620A0470128BCD1DAF8243050469847DAF84B
S2144036301C30012BB4D1DAF81820002100910B463B
S214403640059802445046244CA0470028A8D14FF085
S214403650800372B683F31188BFF36F8FBFF34F8F2B
S21440366062B6FEE70599CAF8181031B1034602461D
S21440367001445046174CA04792E74FF0800372B67D
S21440368083F31188BFF36F8FBFF34F8F62B6FEE7A9
S2144036905046134B984783E7B84704A8094B9847CA
S2144036A00546049B002B7FF478AF0E4B1B681A68C8
S2144036B0B2FA82F2520900242DE700BF800D402066
S2144036C0092A400029344000B40D40206D264000B1
S2144036D0712B400091324000B933400069244000CD
S2144036E0951D4000840D402004ED00E0251A400062
S2144036F010B582B00748084B984701230193002332
S21440370002AA42F8083D01A904480068044CA047B4
S21440371002B010BD507A400005484000C00E402020
S2144037208922400010B582B00748084B98470223CC
S2144037300193002302AA42F8083D01A90448006804
S214403740044CA04702B010BD587A400005484000DF
S214403750C00E40208922400010B582B00748084B72
S214403760984703230193002302AA42F8083D01A983
S21440377004480068044CA04702B010BD607A400080
S21440378005484000C00E40208922400010B582B057
S214403790074A00235366926E019202AA42F8083DF9
S2144037A001A904480068044CA04702B010BD00BF01
S2144037B000C00340C80E402089224000F0B583B0C8
S2144037C005460C46002301932A4B984213D02A4BB9
S2144037D0984218D0294B98421DD0294B9D4222D062
S2144037E0284B9D4227D0284B9D422ED0274B9D42AA
S2144037F035D003B0F0BD1F46254E21463846B0476B
S2144038000028FAD1E9E71F46214E21463846B04700
S2144038100028FAD1E4E71F461D4E21463846B047F9
S2144038200028FAD1DFE71F46194E21463846B047F2
S2144038300028FAD1DAE71E46164D01A93046A847B9
S2144038400028FAD1019B2370D3E71E46114D01A9EB
S2144038503046A8470028FAD1019B2370C9E71E4688
S2144038600C4D01A93046A8470028FAD1019B237089
S214403870BFE700BF00080E40000A0E40001A0E4088
S214403880001C0E40004002400080024000C0024043
S214403890E7154000F316400070B50C462A4B984298
S2144038A013D02A4B984219D0294B98421FD0294B07
S2144038B0984225D0284B98422BD0284B984231D05E
S2144038C0274B984237D0002070BD1E46254D2146D6
S2144038D03046A8470028FAD1012070BD1E46214D2B
S2144038E021463046A8470028FAD1012070BD1E4622
S2144038F01C4D21463046A8470028FAD1012070BD0D
S2144039001E46184D21463046A8470028FAD10120C9
S21440391070BD1E46144D21463046A8470028FAD1B1
S214403920012070BD1E46104D21463046A84700284F
S214403930FAD1012070BD1E460B4D21463046A847A1
S2144039400028FAD1012070BD00080E40000A0E4043
S214403950001A0E40001C0E4000400240008002400C
S21440396000C00240D5154000DD16400008B50A46A6
S21440397001460248024B9847FEE700BFEC7A4000FB
S2144039800548400070474FF0800372B683F31188B5
S214403990BFF36F8FBFF34F8F62B6FEE700B583B0BD
S2144039A001210548054B984701900222044B1A60B6
S2144039B003B05DF804FB00BF00C000405D07400058
S2144039C000C0034008B50648064B984710F0010F64
S2144039D000D108BD0021044B1868044B9847F8E70F
S2144039E030180E4099054000C40E40208923400000
S2144039F010B507EE900AF8EEE77A17EE900A0A4BF3
S214403A0098470022094B0A4CA04705A3D3E9002358
S214403A10084CA047084B984710BD00BFAFF3008046
S214403A200000000000FEAF409942400000005940B0
S214403A304143400095454000654740002DE9F04F22
S214403A4083B00A20454EB047002301224FF0405134
S214403A504348444DA8470C20B04700234FF08042CF
S214403A604FF040514048A8470B20B047002304225F
S214403A704FF040513D48A8471020B0473C4C0923E2
S214403A804FF080524FF020512046A8473C224FF03E
S214403A9080512046DFF8ECB0D847364B0093502391
S214403AA04FF0805210212046DFF8DCA0D0474FF080
S214403AB080512046DFF8D490C8472046DFF8D080B3
S214403AC0C0472D4C4FF480332360802784F8107312
S214403AD00C20B04709234FF000424FF020512248B7
S214403AE0A8473C224FF000411F48D847234B00933D
S214403AF050234FF000420C211B48D0474FF0004166
S214403B001948C8471848C0474FF48053236084F884
S214403B100C730A20B04709234FF400224FF020517F
S214403B200F48A8473C224FF400210D48D847144B75
S214403B30009350234FF400220A210948D0474FF4FF
S214403B4000210748C8470648C0474FF480632360B3
S214403B5084F80A7303B0BDE8F08F00BF81154000BB
S214403B60000E0E406D12400000120E4000100E4037
S214403B7000140E40F136400000E100E025374000DA
S214403B8059374000591140008D1340002F13400014
S214403B90331340002DE9F04385B006460C461746E1
S214403BA0984608461E4B98471E4D009502AB03AA02
S214403BB029464046DFF88C90C847029A42F4804235
S214403BC039463046184B9847039AB5FBF2F2B2FB9B
S214403BD0F8F239463046154B984763B2002B17DB50
S214403BE0134A8021D1545B0904F01F04012202FAD3
S214403BF004F4104A42F823401022394630460E4B11
S214403C009847394630460D4B984705B0BDE8F08397
S214403C1004F00F010A4A0A4480211176E3E700BF08
S214403C208115400000A3E1112B0740004D074000DE
S214403C3000E400E000E100E0550740004507400092
S214403C40FCEC00E0650740002DE9F0478CB0002210
S214403C5004212020714CA047714B1860002204219B
S214403C600520A0476F4B1860032200210120A04783
S214403C706D4B18606D4B98476D4B002211466D4852
S214403C806D4CA0476D4C20466D4B984704A86D4B35
S214403C90984704A920466C4B9847636823F08F03E7
S214403CA0636001A8694B984700258DF8055001AA26
S214403CB029462046664B984765664FF40073E36690
S214403CC002A8644B984702A92046634B98470123B5
S214403CD0624A29462046624EB047624B802283F8AD
S214403CE01D234FF000521A600122626113461821CC
S214403CF05D485E4CA0475E4B98470A955D4B98479B
S214403D00A846DFF81C915C4F5C4C21E00B985C4D5C
S214403D10A84701465B485C4B98470B98A8474F28F6
S214403D2008DD434B002211465848434DA8474FF004
S214403D30010815E03E4B0022114655483E4DA84727
S214403D40002314220AA937480068B8474FF00008F5
S214403D50002332220BA9D9F80000B8470028D5D155
S214403D60002314220AA92F480068B847B8F1000F6C
S214403D70EED00028ECD00A9B012B36D0022B3DD04B
S214403D80444B984700212046434B98474FF4004108
S214403D902046424B98472046414B98470546404E62
S214403DA02046B0478542FBD00AEB050120463D4BF6
S214403DB098472C4B0822C3F88020C3F880218021E6
S214403DC083F803131A604FF480312046364B9847E9
S214403DD0002344F62062194613480068B847012875
S214403DE015D03248284B9847B2E7114B002211466F
S214403DF02F48114DA8474FF0050AC1E70C4B00224B
S214403E0011462C480C4DA8474FF00A0AB8E72A48F6
S214403E101D4B9847294B98479AE700BF29204000FA
S214403E20C80E4020C00E4020C40E4020A50B4000C7
S214403E300C0040208C7A40000D0B400000C0034030
S214403E404904400079024000C9024000A9024000EF
S214403E5035024000B3024000650240008D37400006
S214403E60C903400000E100E000C00040953B400030
S214403E703D3A4000350840006924400030180E4066
S214403E80F1394000947A400005484000A47A40004A
S214403E90B07A4000D5074000310540001D0540007F
S214403EA0850540009D0540005D054000E07A4000E5
S214403EB0BC7A4000C87A4000D47A400005084000EA
S214403EC000B58BB02B4B98472B4B98472B4D2C4B24
S214403ED01D602C4A2C4B1A602C4A2D4B1A604FF40E
S214403EE0E1330493C02305934FF400630693002404
S214403EF0079408940E20274B9847274A04A928463B
S214403F00264B98472846264B98472846254B9847A1
S214403F10254E336821469868244DA8473368214685
S214403F205868A847336821469868A847039402947F
S214403F300194009423464FF4C0621D491D481E4C10
S214403F40A047012802D01D481D4B984700230393E5
S214403F500293019300934FF4C0621A491A48164CD4
S214403F60A047012802D01548154B9847174B98474D
S214403F70FEE700BFC50E4000C10F40000080024073
S214403F807C0E402099384000780E4020BD374000D7
S214403F90740E40208115400080D1F0087D16400008
S214403FA0D1164000D716400024004020B94F4000AC
S214403FB0687A4000493C400049274000707A4000FB
S214403FC005484000907A4000510840007D29400056
S214403FD081F0004102E000BF83F0004330B54FEA75
S214403FE041044FEA430594EA050F08BF90EA020FE2
S214403FF01FBF54EA000C55EA020C7FEA645C7FEA75
S214404000655C00F0E2804FEA5454D4EB5555B8BF97
S2144040106D420CDD2C4480EA020281EA030382EA08
S214404020000083EA010180EA020281EA0303362D9A
S21440403088BF30BD11F0004F4FEA01314FF4801C6D
S2144040404CEA113102D0404261EB410113F0004F7F
S2144040504FEA03334CEA133302D0524263EB430336
S21440406094EA050F00F0A780A4F10104D5F1200ED4
S2144040700DDB02FA0EFC22FA05F2801841F100012F
S21440408003FA0EF2801843FA05F359410EE0A5F103
S21440409020050EF1200E012A03FA0EFC28BF4CF034
S2144040A0020C43FA05F3C01851EBE37101F00045EA
S2144040B007D54FF0000EDCF1000C7EEB00006EEBF7
S2144040C00101B1F5801F1BD3B1F5001F0CD3490881
S2144040D05FEA30004FEA3C0C04F101044FEA4452D8
S2144040E012F5800F80F09A80BCF1004F08BF5FEA5F
S2144040F0500C50F1000041EB045141EA050130BD3F
S2144041005FEA4C0C404141EB010111F4801FA4F1E1
S2144041100104E9D191F0000F04BF01460020B1FA36
S21440412081F308BF2033A3F10B03B3F120020CDA6E
S2144041300C3208DD02F1140CC2F10C0201FA0CF04C
S21440414021FA02F10CE002F11402D8BFC2F1200CB1
S21440415001FA02F120FA0CFCDCBF41EA0C01904067
S214404160E41AA2BF01EB0451294330BD6FEA0404B0
S2144041701F3C1CDA0C340EDC04F11404C4F120029B
S21440418020FA04F001FA02F340EA030021FA04F3AD
S21440419045EA030130BDC4F10C04C4F1200220FA04
S2144041A002F001FA04F340EA0300294630BD21FA42
S2144041B004F0294630BD94F0000F83F4801306BF08
S2144041C081F480110134013D4EE77FEA645C18BFFC
S2144041D07FEA655C29D094EA050F08BF90EA020F93
S2144041E005D054EA000C04BF1946104630BD91EA8B
S2144041F0030F1EBF0021002030BD5FEA545C05D18E
S2144042004000494128BF41F0004130BD14F58004CC
S2144042103CBF01F5801130BD01F0004545F0FE4140
S21440422041F470014FF0000030BD7FEA645C1ABF75
S214404230194610467FEA655C1CBF0B46024650EAAC
S214404240013406BF52EA033591EA030F41F40021D8
S21440425030BD00BF90F0000F04BF0021704730B55E
S2144042604FF4806404F132044FF000054FF0000133
S21440427050E700BF90F0000F04BF0021704730B5F4
S2144042804FF4806404F1320410F0004548BF4042C9
S2144042904FF000013EE700BF42004FEAE2014FEA1E
S2144042A031014FEA02701FBF12F07F4393F07F4FF9
S2144042B081F06051704792F0000F14BF93F07F4F2B
S2144042C0704730B54FF4607401F0004521F000416E
S2144042D020E700BF50EA010208BF704730B54FF0F4
S2144042E000050AE050EA010208BF704730B511F0F9
S2144042F0004502D5404261EB41014FF4806404F131
S21440430032045FEA915C3FF4DCAE4FF003025FEAB2
S214404310DC0C18BF03325FEADC0C18BF033202EB3A
S214404320DC02C2F1200300FA03FC20FA02F001FA94
S21440433003FE40EA0E0021FA02F11444C1E600BF33
S21440434070B54FF0FF0C4CF4E06C1CEA11541DBFE6
S2144043501CEA135594EA0C0F95EA0C0F00F0DEF8B1
S2144043602C4481EA030621EA4C5123EA4C5350EA96
S214404370013518BF52EA033541F4801143F48013E7
S21440438038D0A0FB02CE4FF00005E1FB02E506F078
S2144043900042E0FB03E54FF00006E1FB03569CF0CD
S2144043A0000F18BF4EF0010EA4F1FF04B6F5007FD3
S2144043B064F5407404D25FEA4E0E6D4146EB060645
S2144043C042EAC62141EA55514FEAC52040EA5E50CE
S2144043D04FEACE2EB4F1FD0C88BFBCF5E06F1ED878
S2144043E0BEF1004F08BF5FEA500E50F1000041EBAF
S2144043F0045170BD06F0004646EA010140EA02005C
S21440440081EA0301B4EB5C04C2BFD4EB0C0541EA7D
S214404410045170BD41F480114FF0000E013C00F392
S214404420AB8014F1360FDEBF002001F0004170BDB6
S214404430C4F10004203C35DA0C341BDC04F11404CF
S214404440C4F1200500FA05F320FA04F001FA05F25B
S21440445040EA020001F0004221F0004110EBD37028
S21440446021FA04F642EB06015EEA430E08BF20EA54
S214404470D37070BDC4F10C04C4F1200500FA04F3F7
S21440448020FA05F001FA04F240EA020001F0004189
S21440449010EBD37041F100015EEA430E08BF20EAFC
S2144044A0D37070BDC4F1200500FA05F24EEA020E44
S2144044B020FA04F301FA05F243EA020321FA04F073
S2144044C001F0004121FA04F220EA020000EBD3702A
S2144044D05EEA430E08BF20EAD37070BD94F0000F2A
S2144044E00FD101F00046400041EB010111F4801F5E
S2144044F008BF013CF7D041EA060195F0000F18BF0F
S214404500704703F00046520043EB030313F4801F4A
S21440451008BF013DF7D043EA0603704794EA0C0F04
S2144045200CEA135518BF95EA0C0F0CD050EA41061A
S21440453018BF52EA4306D1D181EA030101F0004197
S2144045404FF0000070BD50EA410606BF10461946BF
S21440455052EA430619D094EA0C0F02D150EA0136CB
S21440456013D195EA0C0F05D152EA03361CBF10460C
S21440457019460AD181EA030101F0004141F0FE41AB
S21440458041F470014FF0000070BD41F0FE4141F42F
S214404590780170BD70B54FF0FF0C4CF4E06C1CEA2F
S2144045A011541DBF1CEA135594EA0C0F95EA0C0FE4
S2144045B000F0A7F8A4EB050481EA030E52EA03359F
S2144045C04FEA013100F088804FEA03334FF08055C0
S2144045D045EA131343EA12634FEA022245EA1115ED
S2144045E045EA10654FEA00260EF000419D4208BF9E
S2144045F0964244F1FD0404F5407402D25B084FEA4B
S2144046003202B61A65EB03055B084FEA32024FF4F6
S21440461080104FF4002CB6EB020E75EB030E22BF53
S214404620B61A754640EA0C005B084FEA3202B6EB13
S214404630020E75EB030E22BFB61A754640EA5C00C2
S2144046405B084FEA3202B6EB020E75EB030E22BF52
S214404650B61A754640EA9C005B084FEA3202B6EB53
S214404660020E75EB030E22BFB61A754640EADC0012
S21440467055EA060E18D04FEA051545EA16754FEA74
S21440468006164FEAC30343EA52734FEAC2025FEA92
S2144046901C1CC0D111F4801F0BD141EA00014FF021
S2144046A000004FF0004CB6E711F4801F04BF0143F2
S2144046B00020B4F1FD0C88BFBCF5E06F3FF6AFAE0E
S2144046C0B5EB030C04BFB6EB020C5FEA500C50F19E
S2144046D0000041EB045170BD0EF0004E4EEA113121
S2144046E014EB5C04C2BFD4EB0C0541EA045170BD28
S2144046F041F480114FF0000E013C90E645EA060E6C
S2144047008DE60CEA135594EA0C0F08BF95EA0C0F99
S2144047103FF43BAF94EA0C0F0AD150EA01347FF4E1
S21440472034AF95EA0C0F7FF425AF104619462CE7B8
S21440473095EA0C0F06D152EA03353FF4FDAE10461B
S214404740194622E750EA410618BF52EA43067FF46C
S214404750C5AE50EA41047FF40DAF52EA43057FF4FC
S214404760EBAE12E74FEA410212F5001215D211D510
S2144047706FF47873B3EB625212D94FEAC12343F019
S214404780004343EA505311F0004F23FA02F018BF9B
S214404790404270474FF00000704750EA013005D164
S2144047A011F0004008BF6FF0004070474FF0000027
S2144047B0704700BF70B50F4E0F4D761BB61018BF32
S2144047C0002405D0013455F8043B9847A642F9D159
S2144047D00A4E0B4D761B03F049FAB61018BF00245C
S2144047E006D0013455F8043B9847A642F9D170BD2F
S2144047F070BD00BF787C4000787C4000807C4000E4
S214404800787C40000FB400B5074983B004AB086815
S21440481053F8042B8168019300F060FD03B05DF807
S21440482004EB04B0704700BF24004020024B014612
S214404830186800F00BB800BF24004020024B014629
S214404840186801F067BE00BF240040202DE9F04FF5
S21440485001F10B06162E83B0054640F29E8036F0D8
S214404860070600F1BD80B14200F2BA8000F086FB38
S214404870B6F5FC7FC0F09382730A00F0B880042B34
S21440488000F27981B30903F1390003F1380EC30011
S214404890BF4F3B44A3F108015C68A14206D10CE03F
S2144048A0002A80F2AA80E468A14206D0636823F01A
S2144048B003039A1B0F2AF3DD70463C69DFF8E4E2F7
S2144048C0744500F0AB81636823F003039A1B0F2AFC
S2144048D000F39081002AC7F814E0C7F810E080F291
S2144048E09D80B3F5007F80F06181DB0803F1010C09
S2144048F099107A6857F83C80C4F8088001238B40AA
S21440490007EBCC0113430839E1607B6047F83C4035
S214404910C8F80C408210012494409C4200F28B80E0
S2144049201C4206D120F0030064001C4200F1040043
S214404930FAD007EBC009CC468046DCF80C309C45E4
S21440494007D16DE1002A80F27B81DB689C4500F050
S2144049506781596821F003018A1B0F2AF2DDD3F8DC
S2144049600CC0D3F8088000939C19284646F00106F0
S21440497042F001055E60C8F80CC0CCF808807C6147
S2144049803C61C4F80CE0C4F808E065605A5000F09A
S214404990FBFA009B03F108041EE0102920D800F023
S2144049A0EDFA102618230220794F3B44A3F1080263
S2144049B05C68944200F03D816368E168A66823F035
S2144049C00303234428465A68F16042F001028E6091
S2144049D05A6000F0D9FA0834204603B0BDE8F08F9C
S2144049E000240C2320462B6003B0BDE8F08F402007
S2144049F04FF400734FF03F0E4AE72344E1685A688D
S214404A00A66842F00102F16028468E605A6000F0C7
S214404A10BBFA0834204603B0BDE8F08F234428464E
S214404A205A6842F001025A6000F0AEFA0834204656
S214404A3003B0BDE8F08FBC68636823F00308B04558
S214404A4004D3A8EB06030F2B00F38580DFF85891BC
S214404A50504BD9F800201B680132334404EB080A57
S214404A6000F0558103F580530F3323F47F6B2BF012
S214404A700F0B5946284600F08DFA411C024600F0BE
S214404A80FC80824500F2F780434B19685944196010
S214404A9000F04D81D9F8000001301BBFA2EB0A0A96
S214404AA05144C9F80020196012F0070100F0158142
S214404AB0C1F10800C1F580510244083102EB0B09F0
S214404AC0C9F30B09A1EB0909494628460193009210
S214404AD000F060FA431C9DE80C0000F04381801A09
S214404AE0484440F001001968BA604944BC425060EE
S214404AF0196017D0B8F10F0F40F2FB806068A8F13C
S214404B000C0222F0070204EB020E00F001004FF008
S214404B10050C10430F2A6060CEF804C0CEF808C0DB
S214404B2000F217811D4BBC681A68914288BF196015
S214404B301B4B1A689142626888BF196022F00302D4
S214404B409642A2EB060301D80F2B04DC284600F061
S214404B501BFA002440E7A21943F0010346F0010681
S214404B6066602846BA60536000F00EFA0834204665
S214404B7003B0BDE8F08F142B71D9542B00F2A380FC
S214404B80330B03F16F0003F16E0EC30080E600BFE7
S214404B9050044020E80D4020B80D4020E00D402055
S214404BA0E40D402058044020580840205A0A042A61
S214404BB05BD9142A00F2AE8002F15C01C9005B3278
S214404BC007EB010C7958ACF1080C8C4500F0888056
S214404BD04A6822F00302934273D289688C45F7D123
S214404BE0DCF80C207B68E260C4F808C09460CCF81F
S214404BF00C408FE6A11946F0010C42F00106C4F8BD
S214404C0004C0284679613961C1F80CE0C1F808E073
S214404C104E60E25000F0B8F90834DDE67B6879E68D
S214404C2008F1010818F0030F0CF1080C7FF485AE6C
S214404C302DE0DC68A34208BF02303FF43EAEBBE640
S214404C4019441C464A68DB6854F8086F42F0010273
S214404C504A602846F3609E6000F096F9BCE603F191
S214404C605C0003F15B0EC30012E69A0902F13901BB
S214404C70C9003832A4E7BC4254D0BC68626822F00F
S214404C8003025DE759F80839994540F0868010F0F0
S214404C90030F00F1FF30F5D17B6823EA04037B6005
S214404CA064009C423FF6C7AE002C3FF4C4AE1C42A4
S214404CB040467FF43EAE64001C4200F10400FAD049
S214404CC037E68C468CE7B3F5AA7F15D8F30B03F18D
S214404CD0780003F1770EC300DAE54FF48051EDE635
S214404CE07B689210012101FA02F213437B60624610
S214404CF079E70123536029E740F25452934222D881
S214404D00B30C03F17D0003F17C0EC300C0E503F154
S214404D10100BAEE6542A29D81A0B02F16F01C900CF
S214404D206E324DE7204B196859441960B2E6CAF313
S214404D300B0000287FF4AEAE08EB0B03BA6843F0D6
S214404D4001035360EEE67F204FF47E734FF07E0EF5
S214404D509EE504F108012846009301F0DBFB009B2A
S214404D601968DFE601204FF00009BCE6B2F5AA7FDD
S214404D7005D8DA0B02F17801C900773220E740F215
S214404D8054518A4205D89A0C02F17D01C9007C3202
S214404D9016E74FF47E717E2212E77B6880E7F008C4
S214404DA006F1080300E600BFB80D4020844641EAFD
S214404DB0000313F003036DD1403A41D351F8043B4E
S214404DC040F8043B51F8043B40F8043B51F8043BA0
S214404DD040F8043B51F8043B40F8043B51F8043B90
S214404DE040F8043B51F8043B40F8043B51F8043B80
S214404DF040F8043B51F8043B40F8043B51F8043B70
S214404E0040F8043B51F8043B40F8043B51F8043B5F
S214404E1040F8043B51F8043B40F8043B51F8043B4F
S214404E2040F8043B51F8043B40F8043B51F8043B3F
S214404E3040F8043B51F8043B40F8043B403ABDD2AE
S214404E40303211D351F8043B40F8043B51F8043B50
S214404E5040F8043B51F8043B40F8043B51F8043B0F
S214404E6040F8043B103AEDD20C3205D351F8043BDF
S214404E7040F8043B043AF9D2043208D0D2071CBFAB
S214404E8011F8013B00F8013B01D30B8803806046D4
S214404E90704700BF082A13D38B078DD010F003034A
S214404EA08AD0C3F10403D21ADB071CBF11F8013BBA
S214404EB000F8013B80D331F8023B20F8023B7BE709
S214404EC0043AD9D3013A11F8013B00F8013BF9D234
S214404ED00B7803704B7843708B78837060467047CE
S214404EE070B4860746D0541E002A41D0CAB2034644
S214404EF002E014F1FF343BD303F8012B9D07F8D1B1
S214404F00032C2ED9CDB245EA05250F2C45EA05459A
S214404F1019D903F110022646103E0F2E42F8105CB7
S214404F2042F80C5C42F8085C42F8045C02F110025D
S214404F30F2D8A4F1100222F00F0204F00F0410324F
S214404F40032C13440DD91E462246043A032A46F83B
S214404F50045BFAD8221F22F003020432134404F002
S214404F6003042CB1C9B21C4403F8011B9C42FBD17C
S214404F7070BC704714460346C2E700BF014801F0C4
S214404F8063BD00BFDC0E4020014801F05FBD00BF9E
S214404F90DC0E402038B5074C002305460846236003
S214404FA0FCF7E4FC431C00D038BD2368002BFBD044
S214404FB02B6038BDF00E402000290CBF0222002294
S214404FC04FF4806300F000B82DE9F043614C25684B
S214404FD083B004460F4690461E4615B1AB6B002B79
S214404FE064D0B8F1020F06D0B8F1010F00F29F80EE
S214404FF0002EC0F29C80636ED80734D521462846E2
S21440500001F00AF9216B41B104F14003994202D004
S214405010284601F07FFA00232363B4F90C300022BF
S214405020A26162601A063AD423F44A6323F003036B
S214405030B8F1020FA3811DD001AB6A46214628462F
S21440504001F006FDA3891843A081002E32D1009EB0
S2144050503046FFF7EBFB074600286BD0A38943F0AA
S2144050608003A38128E0A3899905C7D4A06D01F0E9
S214405070EBFCC3E70025616E002604F1430243F0D3
S21440508002030120A660CE07A381226022616061F0
S21440509001D498053ED5284603B0BDE8F083216983
S2144050A0284601F037FAB4F90C30BDE7284601F03F
S2144050B00BF996E7002FCBD0AB6B002B33D0009B81
S2144050C0B4F90C2027609E421CBF42F40062A281C5
S2144050D0B8F1010F04BF42F00102A28192B212F071
S2144050E00803276166610ED0D1071AD5656E7642F1
S2144050F0002315F00105A661A36009D000252846C7
S21440510003B0BDE8F083A360656E15F00105F5D1E8
S2144051109305C0D4A06D01F099FC284603B0BDE8C5
S214405120F083A660F0E7284601F0CEF8C7E74FF0D8
S214405130FF35B0E7DDF80090B14504D04846FFF7AC
S21440514075FB074620B9B4F90C304FF0FF3592E7AF
S2144051504E4683E724004020000000000000000088
S21440516000000000000000000000000000000000FA
S21440517000000000000000000000000000000000EA
S21440518090F800F06DE9024520F007016FF0000C42
S21440519010F0070491F820F040F049804FF00004EA
S2144051A06FF00700D1E9002391F840F000F10800C5
S2144051B082FA4CF2A4FA8CF283FA4CF3A2FA8CF3FD
S2144051C04BBBD1E9022382FA4CF200F10800A4FA64
S2144051D08CF283FA4CF3A2FA8CF3E3B9D1E90423B8
S2144051E082FA4CF200F10800A4FA8CF283FA4CF3EF
S2144051F0A2FA8CF37BB9D1E9062301F1200182FAA9
S2144052004CF200F10800A4FA8CF283FA4CF3A2FAAE
S2144052108CF3002BC6D0002A04BF04301A4612BABC
S214405220B2FA82F2FDE8024500EBD2007047D1E9BF
S214405230002304F00305C4F100004FEAC50514F04E
S214405240040F91F840F00CFA05F562EA05021CBF1F
S21440525063EA050362464FF00004A9E72DE9F84FDC
S2144052604B6E9C0493462FD59368126853B30E46F4
S214405270074602F1080919E920045FEA9A0817D0A0
S214405280043D002401E0A04510D0324655F8041FE6
S214405290384601F0BBF8431C04F10104F3D1002367
S2144052A0CBF80830CBF80430BDE8F88FDBF8083090
S2144052B02AF0030AA3EB0A03CBF8083009F10809E1
S2144052C0002BD8D10020EAE701F00AFA0023CBF8F9
S2144052D00830CBF80430BDE8F88F00BF2DE9F04F1A
S2144052E0ADB01D468B4690460793069018B1836B2B
S2144052F0002B00F0F380DBF86430BBF90C00DF07CE
S21440530081B202D48E0540F1FC808C040AD4DBF8CE
S214405310643040F4005123F40053ABF80C10CBF843
S214405320643089B2080740F1B380DBF81030002BB8
S21440533000F0AE8001F01A030A2B00F0B58000237F
S2144053400DF170090B93119310930393CDF83C9095
S214405350CA46CDF810B098F800304446FBB1252B2D
S21440536002D11CE0252B03D014F8013F002BF9D1C5
S214405370A4EB08059DB1109B119ACAF80080013332
S2144053802A44072BCAF80450119210937ADD002A5B
S21440539040F0B084039B10922B44CA460393237874
S2144053A0002B00F0E08300204FF000038DF83730EC
S2144053B004F1010862780546064603464FF0FF347E
S2144053C008F10108A2F12001582900F2DE82DFE848
S2144053D011F02102DC02DC022902DC02DC02DC02E3
S2144053E0DC02DC02DC0289029502DC02A200BD027D
S2144053F0DC029F01A401A401A401A401A401A4010C
S214405400A401A401A401DC02DC02DC02DC02DC0212
S214405410DC02DC02DC02DC02DC02B201DC02DC0282
S214405420DC02DC02DC02DC02DC02DC02DC02DC0247
S2144054309701DC02DC02DC02DC02DC029B01DC02BF
S214405440DC025302DC02DC02DC02DC02DC02DC02B0
S214405450DC02DC02DC02DC025A021B02DC02DC025A
S214405460DC026E021B02DC02DC027302DC02F50187
S21440547082010902D702DC029A02DC02A700DC02A3
S214405480DC022E020AF1080A039B2B44039386E7AC
S2144054905946069800F0ACFD18BBBBF80C1001F05E
S2144054A01A030A2B7FF44BAFBBF90E30002BFFF6E6
S2144054B046AFDBF86430DB0705D48F0503D4DBF852
S2144054C0580001F0C3FA2B4642465946069800F06B
S2144054D04DFD039003982DB0BDE8F08F00F0F4FE2C
S2144054E009E7DBF86430D90704D4BBF80C309A05DA
S2144054F040F1AA844FF0FF33039303982DB0BDE8E4
S214405500F08FDBF8580001F09FFABBF90C0081B22F
S214405510FBE67642079243F0040398F800204FE7F4
S21440552008969E0600F150840799DD060A4600F16B
S214405530EF83580640F1EC830E88043100270122A1
S21440554007914FF000018DF837100025611C00F0E0
S214405550168123F08001029156EA070140F014813B
S214405560002C40F05C83002A40F0B78313F0010320
S214405570059300F057840DF1B00B30230BF8413DF6
S214405580059BA342B8BF234601930DB10133019357
S214405590029B13F00203099302D0019B023301934E
S2144055A0029B13F084030A9340F01782089B019AEB
S2144055B09D1A002D40F31182102D40F39084109BCD
S2144055C0119AC44ED6461027A2461946069C07E0B6
S2144055D001F1020C0EF1080E0146103D102D11DDB2
S2144055E0481C1032072811928EE8C0001090EFDD5C
S2144055F0002A40F0E481103D102D11464FF0010C7A
S214405600CE46EDDC54466146F2462A4407291192BE
S214405610CAF80060CAF80450109100F3EC829DF876
S21440562037500AF1080A481C002D40F0DE81099BDD
S214405630002B00F0F88102320EA9022307281192AF
S21440564010908AE80A0040F3EA81002A40F08C83F2
S2144056500A9B802B4FF001001146CA4640F0E78176
S214405660089B019D5E1B002E40F3E181102E9A4D53
S21440567040F35084D4461027A246069C07E001F12A
S214405680020E0CF1080C0146103E102E11DD481C8F
S2144056901032072811928CE8A0001090EFDD002A07
S2144056A040F09D82103E102E4FF0010E1146CC4623
S2144056B0EDDC5446E2463244BEF1070F11928AE8CA
S2144056C06000CDF840E000F369830AF1080A0EF165
S2144056D001007146ABE1089613F0200240F08C833F
S2144056E013F0100140F01A8313F0400200F01683C6
S2144056F007980A460146043106880791002720E7A6
S214405700089643F01003E7E7089643F0100308E7CF
S21440571043F0800398F8002052E6A2F130010026BC
S21440572018F8012B06EB860601EB4606A2F130017F
S2144057300929F5D946E60896002840F0088443F043
S21440574010039E0600F14C83DD0600F1F3825806F6
S21440575040F1F082079DB5F900602A46F7170432FB
S214405760304639460792002871F10002C0F25D8348
S214405770611C9DF837504FF001027FF4EAAE56EABE
S214405780070100F04D820293012A00F08C82022A23
S21440579040F05C820B98CB46330906F00F0143EA93
S2144057A007733A091E461746435C0BF8013D56EA16
S2144057B00703F1D1A9EB0B030593E1E6002840F07F
S2144057C0C083990600F16783DA0600F1F1805B0634
S2144057D040F1EE80079A136804320792BDF80C2019
S2144057E01A80B8E507983D4A08960B9206687822D4
S2144057F0302104308DF8392043F00203079000270B
S2144058008DF8381002229CE60896002899D08DF82C
S214405810375096E798F80020002D7FF4D1AD012050
S2144058202025CDE543F0010398F80020C8E508960A
S214405830002840F0938329490B919F0600F1E882A7
S2144058400798DE06014600F170825D0640F16D82E3
S2144058500431068807910027D80740F1228256EA8D
S214405860070100F01E8230218DF8392043F00203F4
S2144058708DF83810022264E60896002840F06B83C4
S21440588017490B91D9E7079908960A688DF848207A
S2144058904FF000000A468DF8370004320120019090
S2144058A0079205900DF1480B0293002470E643F0F2
S2144058B0400398F8002083E598F800206C2A03BF40
